{
  "_format": "hh-sol-artifact-1",
  "contractName": "PersonalToken",
  "sourceName": "contracts/PersonalToken.sol",
  "abi": [
    {
      "inputs": [],
      "stateMutability": "nonpayable",
      "type": "constructor"
    },
    {
      "anonymous": false,
      "inputs": [
        {
          "indexed": true,
          "internalType": "address",
          "name": "owner",
          "type": "address"
        },
        {
          "indexed": true,
          "internalType": "address",
          "name": "approved",
          "type": "address"
        },
        {
          "indexed": true,
          "internalType": "uint256",
          "name": "tokenId",
          "type": "uint256"
        }
      ],
      "name": "Approval",
      "type": "event"
    },
    {
      "anonymous": false,
      "inputs": [
        {
          "indexed": true,
          "internalType": "address",
          "name": "owner",
          "type": "address"
        },
        {
          "indexed": true,
          "internalType": "address",
          "name": "operator",
          "type": "address"
        },
        {
          "indexed": false,
          "internalType": "bool",
          "name": "approved",
          "type": "bool"
        }
      ],
      "name": "ApprovalForAll",
      "type": "event"
    },
    {
      "anonymous": false,
      "inputs": [
        {
          "indexed": true,
          "internalType": "address",
          "name": "previousOwner",
          "type": "address"
        },
        {
          "indexed": true,
          "internalType": "address",
          "name": "newOwner",
          "type": "address"
        }
      ],
      "name": "OwnershipTransferred",
      "type": "event"
    },
    {
      "anonymous": false,
      "inputs": [
        {
          "indexed": true,
          "internalType": "address",
          "name": "from",
          "type": "address"
        },
        {
          "indexed": true,
          "internalType": "address",
          "name": "to",
          "type": "address"
        },
        {
          "indexed": true,
          "internalType": "uint256",
          "name": "tokenId",
          "type": "uint256"
        }
      ],
      "name": "Transfer",
      "type": "event"
    },
    {
      "inputs": [
        {
          "internalType": "address",
          "name": "to",
          "type": "address"
        },
        {
          "internalType": "uint256",
          "name": "tokenId",
          "type": "uint256"
        }
      ],
      "name": "approve",
      "outputs": [],
      "stateMutability": "nonpayable",
      "type": "function"
    },
    {
      "inputs": [
        {
          "internalType": "address",
          "name": "owner",
          "type": "address"
        }
      ],
      "name": "balanceOf",
      "outputs": [
        {
          "internalType": "uint256",
          "name": "",
          "type": "uint256"
        }
      ],
      "stateMutability": "view",
      "type": "function"
    },
    {
      "inputs": [],
      "name": "count",
      "outputs": [
        {
          "internalType": "uint256",
          "name": "",
          "type": "uint256"
        }
      ],
      "stateMutability": "view",
      "type": "function"
    },
    {
      "inputs": [
        {
          "internalType": "string",
          "name": "",
          "type": "string"
        }
      ],
      "name": "existingURIs",
      "outputs": [
        {
          "internalType": "uint256",
          "name": "",
          "type": "uint256"
        }
      ],
      "stateMutability": "view",
      "type": "function"
    },
    {
      "inputs": [
        {
          "internalType": "uint256",
          "name": "tokenId",
          "type": "uint256"
        }
      ],
      "name": "getApproved",
      "outputs": [
        {
          "internalType": "address",
          "name": "",
          "type": "address"
        }
      ],
      "stateMutability": "view",
      "type": "function"
    },
    {
      "inputs": [
        {
          "internalType": "address",
          "name": "owner",
          "type": "address"
        },
        {
          "internalType": "address",
          "name": "operator",
          "type": "address"
        }
      ],
      "name": "isApprovedForAll",
      "outputs": [
        {
          "internalType": "bool",
          "name": "",
          "type": "bool"
        }
      ],
      "stateMutability": "view",
      "type": "function"
    },
    {
      "inputs": [
        {
          "internalType": "string",
          "name": "uri",
          "type": "string"
        }
      ],
      "name": "isContentOwned",
      "outputs": [
        {
          "internalType": "bool",
          "name": "",
          "type": "bool"
        }
      ],
      "stateMutability": "view",
      "type": "function"
    },
    {
      "inputs": [],
      "name": "name",
      "outputs": [
        {
          "internalType": "string",
          "name": "",
          "type": "string"
        }
      ],
      "stateMutability": "view",
      "type": "function"
    },
    {
      "inputs": [],
      "name": "owner",
      "outputs": [
        {
          "internalType": "address",
          "name": "",
          "type": "address"
        }
      ],
      "stateMutability": "view",
      "type": "function"
    },
    {
      "inputs": [
        {
          "internalType": "uint256",
          "name": "tokenId",
          "type": "uint256"
        }
      ],
      "name": "ownerOf",
      "outputs": [
        {
          "internalType": "address",
          "name": "",
          "type": "address"
        }
      ],
      "stateMutability": "view",
      "type": "function"
    },
    {
      "inputs": [
        {
          "internalType": "address",
          "name": "recipient",
          "type": "address"
        },
        {
          "internalType": "string",
          "name": "metadataURI",
          "type": "string"
        }
      ],
      "name": "payToMint",
      "outputs": [
        {
          "internalType": "uint256",
          "name": "",
          "type": "uint256"
        }
      ],
      "stateMutability": "payable",
      "type": "function"
    },
    {
      "inputs": [],
      "name": "renounceOwnership",
      "outputs": [],
      "stateMutability": "nonpayable",
      "type": "function"
    },
    {
      "inputs": [
        {
          "internalType": "address",
          "name": "to",
          "type": "address"
        },
        {
          "internalType": "string",
          "name": "uri",
          "type": "string"
        }
      ],
      "name": "safeMint",
      "outputs": [],
      "stateMutability": "nonpayable",
      "type": "function"
    },
    {
      "inputs": [
        {
          "internalType": "address",
          "name": "from",
          "type": "address"
        },
        {
          "internalType": "address",
          "name": "to",
          "type": "address"
        },
        {
          "internalType": "uint256",
          "name": "tokenId",
          "type": "uint256"
        }
      ],
      "name": "safeTransferFrom",
      "outputs": [],
      "stateMutability": "nonpayable",
      "type": "function"
    },
    {
      "inputs": [
        {
          "internalType": "address",
          "name": "from",
          "type": "address"
        },
        {
          "internalType": "address",
          "name": "to",
          "type": "address"
        },
        {
          "internalType": "uint256",
          "name": "tokenId",
          "type": "uint256"
        },
        {
          "internalType": "bytes",
          "name": "data",
          "type": "bytes"
        }
      ],
      "name": "safeTransferFrom",
      "outputs": [],
      "stateMutability": "nonpayable",
      "type": "function"
    },
    {
      "inputs": [
        {
          "internalType": "address",
          "name": "operator",
          "type": "address"
        },
        {
          "internalType": "bool",
          "name": "approved",
          "type": "bool"
        }
      ],
      "name": "setApprovalForAll",
      "outputs": [],
      "stateMutability": "nonpayable",
      "type": "function"
    },
    {
      "inputs": [
        {
          "internalType": "bytes4",
          "name": "interfaceId",
          "type": "bytes4"
        }
      ],
      "name": "supportsInterface",
      "outputs": [
        {
          "internalType": "bool",
          "name": "",
          "type": "bool"
        }
      ],
      "stateMutability": "view",
      "type": "function"
    },
    {
      "inputs": [],
      "name": "symbol",
      "outputs": [
        {
          "internalType": "string",
          "name": "",
          "type": "string"
        }
      ],
      "stateMutability": "view",
      "type": "function"
    },
    {
      "inputs": [
        {
          "internalType": "uint256",
          "name": "tokenId",
          "type": "uint256"
        }
      ],
      "name": "tokenURI",
      "outputs": [
        {
          "internalType": "string",
          "name": "",
          "type": "string"
        }
      ],
      "stateMutability": "view",
      "type": "function"
    },
    {
      "inputs": [
        {
          "internalType": "address",
          "name": "from",
          "type": "address"
        },
        {
          "internalType": "address",
          "name": "to",
          "type": "address"
        },
        {
          "internalType": "uint256",
          "name": "tokenId",
          "type": "uint256"
        }
      ],
      "name": "transferFrom",
      "outputs": [],
      "stateMutability": "nonpayable",
      "type": "function"
    },
    {
      "inputs": [
        {
          "internalType": "address",
          "name": "newOwner",
          "type": "address"
        }
      ],
      "name": "transferOwnership",
      "outputs": [],
      "stateMutability": "nonpayable",
      "type": "function"
    }
  ],
  "bytecode": "0x60806040523480156200001157600080fd5b506040518060400160405280600d81526020017f506572736f6e616c546f6b656e000000000000000000000000000000000000008152506040518060400160405280600381526020017f50544b0000000000000000000000000000000000000000000000000000000000815250816000908051906020019062000096929190620001a6565b508060019080519060200190620000af929190620001a6565b505050620000d2620000c6620000d860201b60201c565b620000e060201b60201c565b620002bb565b600033905090565b6000600760009054906101000a900473ffffffffffffffffffffffffffffffffffffffff16905081600760006101000a81548173ffffffffffffffffffffffffffffffffffffffff021916908373ffffffffffffffffffffffffffffffffffffffff1602179055508173ffffffffffffffffffffffffffffffffffffffff168173ffffffffffffffffffffffffffffffffffffffff167f8be0079c531659141344cd1fd0a4f28419497f9722a3daafe3b4186f6b6457e060405160405180910390a35050565b828054620001b49062000256565b90600052602060002090601f016020900481019282620001d8576000855562000224565b82601f10620001f357805160ff191683800117855562000224565b8280016001018555821562000224579182015b828111156200022357825182559160200191906001019062000206565b5b50905062000233919062000237565b5090565b5b808211156200025257600081600090555060010162000238565b5090565b600060028204905060018216806200026f57607f821691505b602082108114156200028657620002856200028c565b5b50919050565b7f4e487b7100000000000000000000000000000000000000000000000000000000600052602260045260246000fd5b6130eb80620002cb6000396000f3fe60806040526004361061012a5760003560e01c8063715018a6116100ab578063b88d4fde1161006f578063b88d4fde146103f7578063c87b56dd14610420578063d204c45e1461045d578063e985e9c514610486578063f2fde38b146104c3578063f37971df146104ec5761012a565b8063715018a6146103245780638da5cb5b1461033b57806395d89b41146103665780639f1cabc614610391578063a22cb465146103ce5761012a565b806323b872dd116100f257806323b872dd1461022857806342842e0e14610251578063615fd9e21461027a5780636352211e146102aa57806370a08231146102e75761012a565b806301ffc9a71461012f57806306661abd1461016c57806306fdde0314610197578063081812fc146101c2578063095ea7b3146101ff575b600080fd5b34801561013b57600080fd5b50610156600480360381019061015191906121d8565b610529565b6040516101639190612636565b60405180910390f35b34801561017857600080fd5b5061018161060b565b60405161018e9190612873565b60405180910390f35b3480156101a357600080fd5b506101ac61061c565b6040516101b99190612651565b60405180910390f35b3480156101ce57600080fd5b506101e960048036038101906101e4919061226b565b6106ae565b6040516101f691906125cf565b60405180910390f35b34801561020b57600080fd5b506102266004803603810190610221919061219c565b6106f4565b005b34801561023457600080fd5b5061024f600480360381019061024a9190612042565b61080c565b005b34801561025d57600080fd5b5061027860048036038101906102739190612042565b61086c565b005b610294600480360381019061028f9190612148565b61088c565b6040516102a19190612873565b60405180910390f35b3480156102b657600080fd5b506102d160048036038101906102cc919061226b565b610994565b6040516102de91906125cf565b60405180910390f35b3480156102f357600080fd5b5061030e60048036038101906103099190611fdd565b610a46565b60405161031b9190612873565b60405180910390f35b34801561033057600080fd5b50610339610afe565b005b34801561034757600080fd5b50610350610b12565b60405161035d91906125cf565b60405180910390f35b34801561037257600080fd5b5061037b610b3c565b6040516103889190612651565b60405180910390f35b34801561039d57600080fd5b506103b860048036038101906103b3919061222a565b610bce565b6040516103c59190612636565b60405180910390f35b3480156103da57600080fd5b506103f560048036038101906103f0919061210c565b610bf9565b005b34801561040357600080fd5b5061041e60048036038101906104199190612091565b610c0f565b005b34801561042c57600080fd5b506104476004803603810190610442919061226b565b610c71565b6040516104549190612651565b60405180910390f35b34801561046957600080fd5b50610484600480360381019061047f9190612148565b610c83565b005b34801561049257600080fd5b506104ad60048036038101906104a89190612006565b610cbc565b6040516104ba9190612636565b60405180910390f35b3480156104cf57600080fd5b506104ea60048036038101906104e59190611fdd565b610d50565b005b3480156104f857600080fd5b50610513600480360381019061050e919061222a565b610dd4565b6040516105209190612873565b60405180910390f35b60007f80ac58cd000000000000000000000000000000000000000000000000000000007bffffffffffffffffffffffffffffffffffffffffffffffffffffffff1916827bffffffffffffffffffffffffffffffffffffffffffffffffffffffff191614806105f457507f5b5e139f000000000000000000000000000000000000000000000000000000007bffffffffffffffffffffffffffffffffffffffffffffffffffffffff1916827bffffffffffffffffffffffffffffffffffffffffffffffffffffffff1916145b80610604575061060382610e02565b5b9050919050565b60006106176008610e6c565b905090565b60606000805461062b90612ac9565b80601f016020809104026020016040519081016040528092919081815260200182805461065790612ac9565b80156106a45780601f10610679576101008083540402835291602001916106a4565b820191906000526020600020905b81548152906001019060200180831161068757829003601f168201915b5050505050905090565b60006106b982610e7a565b6004600083815260200190815260200160002060009054906101000a900473ffffffffffffffffffffffffffffffffffffffff169050919050565b60006106ff82610994565b90508073ffffffffffffffffffffffffffffffffffffffff168373ffffffffffffffffffffffffffffffffffffffff161415610770576040517f08c379a0000000000000000000000000000000000000000000000000000000008152600401610767906127f3565b60405180910390fd5b8073ffffffffffffffffffffffffffffffffffffffff1661078f610ec5565b73ffffffffffffffffffffffffffffffffffffffff1614806107be57506107bd816107b8610ec5565b610cbc565b5b6107fd576040517f08c379a00000000000000000000000000000000000000000000000000000000081526004016107f490612773565b60405180910390fd5b6108078383610ecd565b505050565b61081d610817610ec5565b82610f86565b61085c576040517f08c379a000000000000000000000000000000000000000000000000000000000815260040161085390612833565b60405180910390fd5b61086783838361101b565b505050565b61088783838360405180602001604052806000815250610c0f565b505050565b600060016009836040516108a09190612594565b90815260200160405180910390205414156108f0576040517f08c379a00000000000000000000000000000000000000000000000000000000081526004016108e790612813565b60405180910390fd5b66b1a2bc2ec5000034101561093a576040517f08c379a000000000000000000000000000000000000000000000000000000000815260040161093190612853565b60405180910390fd5b60006109466008610e6c565b90506109526008611282565b60016009846040516109649190612594565b9081526020016040518091039020819055506109808482611298565b61098a8184611472565b8091505092915050565b6000806002600084815260200190815260200160002060009054906101000a900473ffffffffffffffffffffffffffffffffffffffff169050600073ffffffffffffffffffffffffffffffffffffffff168173ffffffffffffffffffffffffffffffffffffffff161415610a3d576040517f08c379a0000000000000000000000000000000000000000000000000000000008152600401610a34906127d3565b60405180910390fd5b80915050919050565b60008073ffffffffffffffffffffffffffffffffffffffff168273ffffffffffffffffffffffffffffffffffffffff161415610ab7576040517f08c379a0000000000000000000000000000000000000000000000000000000008152600401610aae90612733565b60405180910390fd5b600360008373ffffffffffffffffffffffffffffffffffffffff1673ffffffffffffffffffffffffffffffffffffffff168152602001908152602001600020549050919050565b610b066114e6565b610b106000611564565b565b6000600760009054906101000a900473ffffffffffffffffffffffffffffffffffffffff16905090565b606060018054610b4b90612ac9565b80601f0160208091040260200160405190810160405280929190818152602001828054610b7790612ac9565b8015610bc45780601f10610b9957610100808354040283529160200191610bc4565b820191906000526020600020905b815481529060010190602001808311610ba757829003601f168201915b5050505050905090565b60006001600983604051610be29190612594565b908152602001604051809103902054149050919050565b610c0b610c04610ec5565b838361162a565b5050565b610c20610c1a610ec5565b83610f86565b610c5f576040517f08c379a0000000000000000000000000000000000000000000000000000000008152600401610c5690612833565b60405180910390fd5b610c6b84848484611797565b50505050565b6060610c7c826117f3565b9050919050565b610c8b6114e6565b6000610c976008610e6c565b9050610ca36008611282565b610cad8382611906565b610cb78183611472565b505050565b6000600560008473ffffffffffffffffffffffffffffffffffffffff1673ffffffffffffffffffffffffffffffffffffffff16815260200190815260200160002060008373ffffffffffffffffffffffffffffffffffffffff1673ffffffffffffffffffffffffffffffffffffffff16815260200190815260200160002060009054906101000a900460ff16905092915050565b610d586114e6565b600073ffffffffffffffffffffffffffffffffffffffff168173ffffffffffffffffffffffffffffffffffffffff161415610dc8576040517f08c379a0000000000000000000000000000000000000000000000000000000008152600401610dbf90612693565b60405180910390fd5b610dd181611564565b50565b6009818051602081018201805184825260208301602085012081835280955050505050506000915090505481565b60007f01ffc9a7000000000000000000000000000000000000000000000000000000007bffffffffffffffffffffffffffffffffffffffffffffffffffffffff1916827bffffffffffffffffffffffffffffffffffffffffffffffffffffffff1916149050919050565b600081600001549050919050565b610e8381611924565b610ec2576040517f08c379a0000000000000000000000000000000000000000000000000000000008152600401610eb9906127d3565b60405180910390fd5b50565b600033905090565b816004600083815260200190815260200160002060006101000a81548173ffffffffffffffffffffffffffffffffffffffff021916908373ffffffffffffffffffffffffffffffffffffffff160217905550808273ffffffffffffffffffffffffffffffffffffffff16610f4083610994565b73ffffffffffffffffffffffffffffffffffffffff167f8c5be1e5ebec7d5bd14f71427d1e84f3dd0314c0f7b2291e5b200ac8c7c3b92560405160405180910390a45050565b600080610f9283610994565b90508073ffffffffffffffffffffffffffffffffffffffff168473ffffffffffffffffffffffffffffffffffffffff161480610fd45750610fd38185610cbc565b5b8061101257508373ffffffffffffffffffffffffffffffffffffffff16610ffa846106ae565b73ffffffffffffffffffffffffffffffffffffffff16145b91505092915050565b8273ffffffffffffffffffffffffffffffffffffffff1661103b82610994565b73ffffffffffffffffffffffffffffffffffffffff1614611091576040517f08c379a0000000000000000000000000000000000000000000000000000000008152600401611088906126b3565b60405180910390fd5b600073ffffffffffffffffffffffffffffffffffffffff168273ffffffffffffffffffffffffffffffffffffffff161415611101576040517f08c379a00000000000000000000000000000000000000000000000000000000081526004016110f8906126f3565b60405180910390fd5b61110c838383611990565b611117600082610ecd565b6001600360008573ffffffffffffffffffffffffffffffffffffffff1673ffffffffffffffffffffffffffffffffffffffff168152602001908152602001600020600082825461116791906129df565b925050819055506001600360008473ffffffffffffffffffffffffffffffffffffffff1673ffffffffffffffffffffffffffffffffffffffff16815260200190815260200160002060008282546111be9190612958565b92505081905550816002600083815260200190815260200160002060006101000a81548173ffffffffffffffffffffffffffffffffffffffff021916908373ffffffffffffffffffffffffffffffffffffffff160217905550808273ffffffffffffffffffffffffffffffffffffffff168473ffffffffffffffffffffffffffffffffffffffff167fddf252ad1be2c89b69c2b068fc378daa952ba7f163c4a11628f55a4df523b3ef60405160405180910390a461127d838383611995565b505050565b6001816000016000828254019250508190555050565b600073ffffffffffffffffffffffffffffffffffffffff168273ffffffffffffffffffffffffffffffffffffffff161415611308576040517f08c379a00000000000000000000000000000000000000000000000000000000081526004016112ff90612793565b60405180910390fd5b61131181611924565b15611351576040517f08c379a0000000000000000000000000000000000000000000000000000000008152600401611348906126d3565b60405180910390fd5b61135d60008383611990565b6001600360008473ffffffffffffffffffffffffffffffffffffffff1673ffffffffffffffffffffffffffffffffffffffff16815260200190815260200160002060008282546113ad9190612958565b92505081905550816002600083815260200190815260200160002060006101000a81548173ffffffffffffffffffffffffffffffffffffffff021916908373ffffffffffffffffffffffffffffffffffffffff160217905550808273ffffffffffffffffffffffffffffffffffffffff16600073ffffffffffffffffffffffffffffffffffffffff167fddf252ad1be2c89b69c2b068fc378daa952ba7f163c4a11628f55a4df523b3ef60405160405180910390a461146e60008383611995565b5050565b61147b82611924565b6114ba576040517f08c379a00000000000000000000000000000000000000000000000000000000081526004016114b190612753565b60405180910390fd5b806006600084815260200190815260200160002090805190602001906114e1929190611e01565b505050565b6114ee610ec5565b73ffffffffffffffffffffffffffffffffffffffff1661150c610b12565b73ffffffffffffffffffffffffffffffffffffffff1614611562576040517f08c379a0000000000000000000000000000000000000000000000000000000008152600401611559906127b3565b60405180910390fd5b565b6000600760009054906101000a900473ffffffffffffffffffffffffffffffffffffffff16905081600760006101000a81548173ffffffffffffffffffffffffffffffffffffffff021916908373ffffffffffffffffffffffffffffffffffffffff1602179055508173ffffffffffffffffffffffffffffffffffffffff168173ffffffffffffffffffffffffffffffffffffffff167f8be0079c531659141344cd1fd0a4f28419497f9722a3daafe3b4186f6b6457e060405160405180910390a35050565b8173ffffffffffffffffffffffffffffffffffffffff168373ffffffffffffffffffffffffffffffffffffffff161415611699576040517f08c379a000000000000000000000000000000000000000000000000000000000815260040161169090612713565b60405180910390fd5b80600560008573ffffffffffffffffffffffffffffffffffffffff1673ffffffffffffffffffffffffffffffffffffffff16815260200190815260200160002060008473ffffffffffffffffffffffffffffffffffffffff1673ffffffffffffffffffffffffffffffffffffffff16815260200190815260200160002060006101000a81548160ff0219169083151502179055508173ffffffffffffffffffffffffffffffffffffffff168373ffffffffffffffffffffffffffffffffffffffff167f17307eab39ab6107e8899845ad3d59bd9653f200f220920489ca2b5937696c318360405161178a9190612636565b60405180910390a3505050565b6117a284848461101b565b6117ae8484848461199a565b6117ed576040517f08c379a00000000000000000000000000000000000000000000000000000000081526004016117e490612673565b60405180910390fd5b50505050565b60606117fe82610e7a565b600060066000848152602001908152602001600020805461181e90612ac9565b80601f016020809104026020016040519081016040528092919081815260200182805461184a90612ac9565b80156118975780601f1061186c57610100808354040283529160200191611897565b820191906000526020600020905b81548152906001019060200180831161187a57829003601f168201915b5050505050905060006118a8611b31565b90506000815114156118be578192505050611901565b6000825111156118f35780826040516020016118db9291906125ab565b60405160208183030381529060405292505050611901565b6118fc84611b6e565b925050505b919050565b611920828260405180602001604052806000815250611bd6565b5050565b60008073ffffffffffffffffffffffffffffffffffffffff166002600084815260200190815260200160002060009054906101000a900473ffffffffffffffffffffffffffffffffffffffff1673ffffffffffffffffffffffffffffffffffffffff1614159050919050565b505050565b505050565b60006119bb8473ffffffffffffffffffffffffffffffffffffffff16611c31565b15611b24578373ffffffffffffffffffffffffffffffffffffffff1663150b7a026119e4610ec5565b8786866040518563ffffffff1660e01b8152600401611a0694939291906125ea565b602060405180830381600087803b158015611a2057600080fd5b505af1925050508015611a5157506040513d601f19601f82011682018060405250810190611a4e9190612201565b60015b611ad4573d8060008114611a81576040519150601f19603f3d011682016040523d82523d6000602084013e611a86565b606091505b50600081511415611acc576040517f08c379a0000000000000000000000000000000000000000000000000000000008152600401611ac390612673565b60405180910390fd5b805181602001fd5b63150b7a0260e01b7bffffffffffffffffffffffffffffffffffffffffffffffffffffffff1916817bffffffffffffffffffffffffffffffffffffffffffffffffffffffff191614915050611b29565b600190505b949350505050565b60606040518060400160405280600781526020017f697066733a2f2f00000000000000000000000000000000000000000000000000815250905090565b6060611b7982610e7a565b6000611b83611b31565b90506000815111611ba35760405180602001604052806000815250611bce565b80611bad84611c54565b604051602001611bbe9291906125ab565b6040516020818303038152906040525b915050919050565b611be08383611298565b611bed600084848461199a565b611c2c576040517f08c379a0000000000000000000000000000000000000000000000000000000008152600401611c2390612673565b60405180910390fd5b505050565b6000808273ffffffffffffffffffffffffffffffffffffffff163b119050919050565b60606000821415611c9c576040518060400160405280600181526020017f30000000000000000000000000000000000000000000000000000000000000008152509050611dfc565b600082905060005b60008214611cce578080611cb790612b2c565b915050600a82611cc791906129ae565b9150611ca4565b60008167ffffffffffffffff811115611d10577f4e487b7100000000000000000000000000000000000000000000000000000000600052604160045260246000fd5b6040519080825280601f01601f191660200182016040528015611d425781602001600182028036833780820191505090505b5090505b60008514611df557600182611d5b91906129df565b9150600a85611d6a9190612b75565b6030611d769190612958565b60f81b818381518110611db2577f4e487b7100000000000000000000000000000000000000000000000000000000600052603260045260246000fd5b60200101907effffffffffffffffffffffffffffffffffffffffffffffffffffffffffffff1916908160001a905350600a85611dee91906129ae565b9450611d46565b8093505050505b919050565b828054611e0d90612ac9565b90600052602060002090601f016020900481019282611e2f5760008555611e76565b82601f10611e4857805160ff1916838001178555611e76565b82800160010185558215611e76579182015b82811115611e75578251825591602001919060010190611e5a565b5b509050611e839190611e87565b5090565b5b80821115611ea0576000816000905550600101611e88565b5090565b6000611eb7611eb2846128b3565b61288e565b905082815260208101848484011115611ecf57600080fd5b611eda848285612a87565b509392505050565b6000611ef5611ef0846128e4565b61288e565b905082815260208101848484011115611f0d57600080fd5b611f18848285612a87565b509392505050565b600081359050611f2f81613059565b92915050565b600081359050611f4481613070565b92915050565b600081359050611f5981613087565b92915050565b600081519050611f6e81613087565b92915050565b600082601f830112611f8557600080fd5b8135611f95848260208601611ea4565b91505092915050565b600082601f830112611faf57600080fd5b8135611fbf848260208601611ee2565b91505092915050565b600081359050611fd78161309e565b92915050565b600060208284031215611fef57600080fd5b6000611ffd84828501611f20565b91505092915050565b6000806040838503121561201957600080fd5b600061202785828601611f20565b925050602061203885828601611f20565b9150509250929050565b60008060006060848603121561205757600080fd5b600061206586828701611f20565b935050602061207686828701611f20565b925050604061208786828701611fc8565b9150509250925092565b600080600080608085870312156120a757600080fd5b60006120b587828801611f20565b94505060206120c687828801611f20565b93505060406120d787828801611fc8565b925050606085013567ffffffffffffffff8111156120f457600080fd5b61210087828801611f74565b91505092959194509250565b6000806040838503121561211f57600080fd5b600061212d85828601611f20565b925050602061213e85828601611f35565b9150509250929050565b6000806040838503121561215b57600080fd5b600061216985828601611f20565b925050602083013567ffffffffffffffff81111561218657600080fd5b61219285828601611f9e565b9150509250929050565b600080604083850312156121af57600080fd5b60006121bd85828601611f20565b92505060206121ce85828601611fc8565b9150509250929050565b6000602082840312156121ea57600080fd5b60006121f884828501611f4a565b91505092915050565b60006020828403121561221357600080fd5b600061222184828501611f5f565b91505092915050565b60006020828403121561223c57600080fd5b600082013567ffffffffffffffff81111561225657600080fd5b61226284828501611f9e565b91505092915050565b60006020828403121561227d57600080fd5b600061228b84828501611fc8565b91505092915050565b61229d81612a13565b82525050565b6122ac81612a25565b82525050565b60006122bd82612915565b6122c7818561292b565b93506122d7818560208601612a96565b6122e081612c62565b840191505092915050565b60006122f682612920565b612300818561293c565b9350612310818560208601612a96565b61231981612c62565b840191505092915050565b600061232f82612920565b612339818561294d565b9350612349818560208601612a96565b80840191505092915050565b600061236260328361293c565b915061236d82612c73565b604082019050919050565b600061238560268361293c565b915061239082612cc2565b604082019050919050565b60006123a860258361293c565b91506123b382612d11565b604082019050919050565b60006123cb601c8361293c565b91506123d682612d60565b602082019050919050565b60006123ee60248361293c565b91506123f982612d89565b604082019050919050565b600061241160198361293c565b915061241c82612dd8565b602082019050919050565b600061243460298361293c565b915061243f82612e01565b604082019050919050565b6000612457602e8361293c565b915061246282612e50565b604082019050919050565b600061247a603e8361293c565b915061248582612e9f565b604082019050919050565b600061249d60208361293c565b91506124a882612eee565b602082019050919050565b60006124c060208361293c565b91506124cb82612f17565b602082019050919050565b60006124e360188361293c565b91506124ee82612f40565b602082019050919050565b600061250660218361293c565b915061251182612f69565b604082019050919050565b600061252960138361293c565b915061253482612fb8565b602082019050919050565b600061254c602e8361293c565b915061255782612fe1565b604082019050919050565b600061256f600f8361293c565b915061257a82613030565b602082019050919050565b61258e81612a7d565b82525050565b60006125a08284612324565b915081905092915050565b60006125b78285612324565b91506125c38284612324565b91508190509392505050565b60006020820190506125e46000830184612294565b92915050565b60006080820190506125ff6000830187612294565b61260c6020830186612294565b6126196040830185612585565b818103606083015261262b81846122b2565b905095945050505050565b600060208201905061264b60008301846122a3565b92915050565b6000602082019050818103600083015261266b81846122eb565b905092915050565b6000602082019050818103600083015261268c81612355565b9050919050565b600060208201905081810360008301526126ac81612378565b9050919050565b600060208201905081810360008301526126cc8161239b565b9050919050565b600060208201905081810360008301526126ec816123be565b9050919050565b6000602082019050818103600083015261270c816123e1565b9050919050565b6000602082019050818103600083015261272c81612404565b9050919050565b6000602082019050818103600083015261274c81612427565b9050919050565b6000602082019050818103600083015261276c8161244a565b9050919050565b6000602082019050818103600083015261278c8161246d565b9050919050565b600060208201905081810360008301526127ac81612490565b9050919050565b600060208201905081810360008301526127cc816124b3565b9050919050565b600060208201905081810360008301526127ec816124d6565b9050919050565b6000602082019050818103600083015261280c816124f9565b9050919050565b6000602082019050818103600083015261282c8161251c565b9050919050565b6000602082019050818103600083015261284c8161253f565b9050919050565b6000602082019050818103600083015261286c81612562565b9050919050565b60006020820190506128886000830184612585565b92915050565b60006128986128a9565b90506128a48282612afb565b919050565b6000604051905090565b600067ffffffffffffffff8211156128ce576128cd612c33565b5b6128d782612c62565b9050602081019050919050565b600067ffffffffffffffff8211156128ff576128fe612c33565b5b61290882612c62565b9050602081019050919050565b600081519050919050565b600081519050919050565b600082825260208201905092915050565b600082825260208201905092915050565b600081905092915050565b600061296382612a7d565b915061296e83612a7d565b9250827fffffffffffffffffffffffffffffffffffffffffffffffffffffffffffffffff038211156129a3576129a2612ba6565b5b828201905092915050565b60006129b982612a7d565b91506129c483612a7d565b9250826129d4576129d3612bd5565b5b828204905092915050565b60006129ea82612a7d565b91506129f583612a7d565b925082821015612a0857612a07612ba6565b5b828203905092915050565b6000612a1e82612a5d565b9050919050565b60008115159050919050565b60007fffffffff0000000000000000000000000000000000000000000000000000000082169050919050565b600073ffffffffffffffffffffffffffffffffffffffff82169050919050565b6000819050919050565b82818337600083830152505050565b60005b83811015612ab4578082015181840152602081019050612a99565b83811115612ac3576000848401525b50505050565b60006002820490506001821680612ae157607f821691505b60208210811415612af557612af4612c04565b5b50919050565b612b0482612c62565b810181811067ffffffffffffffff82111715612b2357612b22612c33565b5b80604052505050565b6000612b3782612a7d565b91507fffffffffffffffffffffffffffffffffffffffffffffffffffffffffffffffff821415612b6a57612b69612ba6565b5b600182019050919050565b6000612b8082612a7d565b9150612b8b83612a7d565b925082612b9b57612b9a612bd5565b5b828206905092915050565b7f4e487b7100000000000000000000000000000000000000000000000000000000600052601160045260246000fd5b7f4e487b7100000000000000000000000000000000000000000000000000000000600052601260045260246000fd5b7f4e487b7100000000000000000000000000000000000000000000000000000000600052602260045260246000fd5b7f4e487b7100000000000000000000000000000000000000000000000000000000600052604160045260246000fd5b6000601f19601f8301169050919050565b7f4552433732313a207472616e7366657220746f206e6f6e20455243373231526560008201527f63656976657220696d706c656d656e7465720000000000000000000000000000602082015250565b7f4f776e61626c653a206e6577206f776e657220697320746865207a65726f206160008201527f6464726573730000000000000000000000000000000000000000000000000000602082015250565b7f4552433732313a207472616e736665722066726f6d20696e636f72726563742060008201527f6f776e6572000000000000000000000000000000000000000000000000000000602082015250565b7f4552433732313a20746f6b656e20616c7265616479206d696e74656400000000600082015250565b7f4552433732313a207472616e7366657220746f20746865207a65726f2061646460008201527f7265737300000000000000000000000000000000000000000000000000000000602082015250565b7f4552433732313a20617070726f766520746f2063616c6c657200000000000000600082015250565b7f4552433732313a2061646472657373207a65726f206973206e6f74206120766160008201527f6c6964206f776e65720000000000000000000000000000000000000000000000602082015250565b7f45524337323155524953746f726167653a2055524920736574206f66206e6f6e60008201527f6578697374656e7420746f6b656e000000000000000000000000000000000000602082015250565b7f4552433732313a20617070726f76652063616c6c6572206973206e6f7420746f60008201527f6b656e206f776e6572206e6f7220617070726f76656420666f7220616c6c0000602082015250565b7f4552433732313a206d696e7420746f20746865207a65726f2061646472657373600082015250565b7f4f776e61626c653a2063616c6c6572206973206e6f7420746865206f776e6572600082015250565b7f4552433732313a20696e76616c696420746f6b656e2049440000000000000000600082015250565b7f4552433732313a20617070726f76616c20746f2063757272656e74206f776e6560008201527f7200000000000000000000000000000000000000000000000000000000000000602082015250565b7f4e465420616c7265616479206d696e7465642100000000000000000000000000600082015250565b7f4552433732313a2063616c6c6572206973206e6f7420746f6b656e206f776e6560008201527f72206e6f7220617070726f766564000000000000000000000000000000000000602082015250565b7f4e65656420746f20706179207570210000000000000000000000000000000000600082015250565b61306281612a13565b811461306d57600080fd5b50565b61307981612a25565b811461308457600080fd5b50565b61309081612a31565b811461309b57600080fd5b50565b6130a781612a7d565b81146130b257600080fd5b5056fea264697066735822122007023add97b1b2ab39b9c1f97ce3d075023bdbbf14bbda484368366461c0758564736f6c63430008040033",
  "linkReferences": {},
  "deployedLinkReferences": {}
}